{
  "_format": "hh-sol-artifact-1",
  "contractName": "VinuEarnFactory",
  "sourceName": "contracts/VinuEarnFactory.sol",
  "abi": [
    {
      "inputs": [],
      "stateMutability": "nonpayable",
      "type": "constructor"
    },
    {
      "anonymous": false,
      "inputs": [
        {
          "indexed": true,
          "internalType": "address",
          "name": "vinuEarn",
          "type": "address"
        }
      ],
      "name": "NewVinuEarnContract",
      "type": "event"
    },
    {
      "anonymous": false,
      "inputs": [
        {
          "indexed": true,
          "internalType": "address",
          "name": "vinuEarnLp",
          "type": "address"
        }
      ],
      "name": "NewVinuEarnLPContract",
      "type": "event"
    },
    {
      "anonymous": false,
      "inputs": [
        {
          "indexed": true,
          "internalType": "address",
          "name": "previousOwner",
          "type": "address"
        },
        {
          "indexed": true,
          "internalType": "address",
          "name": "newOwner",
          "type": "address"
        }
      ],
      "name": "OwnershipTransferred",
      "type": "event"
    },
    {
      "inputs": [
        {
          "internalType": "contract IVinuSwapNFT",
          "name": "_stakedNft",
          "type": "address"
        },
        {
          "internalType": "contract IERC20WithDecimals",
          "name": "_rewardToken",
          "type": "address"
        },
        {
          "internalType": "uint256",
          "name": "_rewardPerSecond",
          "type": "uint256"
        },
        {
          "internalType": "uint256",
          "name": "_bonusStartTime",
          "type": "uint256"
        },
        {
          "internalType": "uint256",
          "name": "_bonusEndTime",
          "type": "uint256"
        },
        {
          "internalType": "uint256",
          "name": "_poolLimitPerUser",
          "type": "uint256"
        },
        {
          "internalType": "address",
          "name": "_owner",
          "type": "address"
        }
      ],
      "name": "deployLpPool",
      "outputs": [
        {
          "internalType": "address",
          "name": "",
          "type": "address"
        }
      ],
      "stateMutability": "nonpayable",
      "type": "function"
    },
    {
      "inputs": [
        {
          "internalType": "contract IERC20WithDecimals",
          "name": "_stakedToken",
          "type": "address"
        },
        {
          "internalType": "contract IERC20WithDecimals",
          "name": "_rewardToken",
          "type": "address"
        },
        {
          "internalType": "uint256",
          "name": "_rewardPerSecond",
          "type": "uint256"
        },
        {
          "internalType": "uint256",
          "name": "_bonusStartTime",
          "type": "uint256"
        },
        {
          "internalType": "uint256",
          "name": "_bonusEndTime",
          "type": "uint256"
        },
        {
          "internalType": "uint256",
          "name": "_poolLimitPerUser",
          "type": "uint256"
        },
        {
          "internalType": "address",
          "name": "_owner",
          "type": "address"
        }
      ],
      "name": "deployTokenPool",
      "outputs": [
        {
          "internalType": "address",
          "name": "",
          "type": "address"
        }
      ],
      "stateMutability": "nonpayable",
      "type": "function"
    },
    {
      "inputs": [],
      "name": "owner",
      "outputs": [
        {
          "internalType": "address",
          "name": "",
          "type": "address"
        }
      ],
      "stateMutability": "view",
      "type": "function"
    },
    {
      "inputs": [],
      "name": "renounceOwnership",
      "outputs": [],
      "stateMutability": "nonpayable",
      "type": "function"
    },
    {
      "inputs": [
        {
          "internalType": "address",
          "name": "newOwner",
          "type": "address"
        }
      ],
      "name": "transferOwnership",
      "outputs": [],
      "stateMutability": "nonpayable",
      "type": "function"
    }
  ],
  "bytecode": "0x608060405234801561001057600080fd5b5061002161001c610026565b61002a565b61007a565b3390565b600080546001600160a01b038381166001600160a01b0319831681178455604051919092169283917f8be0079c531659141344cd1fd0a4f28419497f9722a3daafe3b4186f6b6457e09190a35050565b614d4b806100896000396000f3fe608060405234801561001057600080fd5b50600436106100575760003560e01c80632d3931cc1461005c5780635f95730714610085578063715018a6146100985780638da5cb5b146100a2578063f2fde38b146100aa575b600080fd5b61006f61006a3660046105dd565b6100bd565b60405161007c919061069e565b60405180910390f35b61006f6100933660046105dd565b61025a565b6100a06104b0565b005b61006f6104c4565b6100a06100b83660046105ba565b6104d3565b60006100c761050d565b6000876001600160a01b03166318160ddd6040518163ffffffff1660e01b815260040160206040518083038186803b15801561010257600080fd5b505afa158015610116573d6000803e3d6000fd5b505050506040513d601f19601f8201168201806040525081019061013a919061064e565b101561014557600080fd5b600060405180602001610157906105a0565b6020820181038252601f19601f820116604052509050600089898860016040516020016101879493929190610666565b6040516020818303038152906040528051906020012090506000818351602085016000f56040516320e9410760e21b81529091506001600160a01b038216906383a5041c906101e6908e908e908e908e908e908e908e906004016106b2565b600060405180830381600087803b15801561020057600080fd5b505af1158015610214573d6000803e3d6000fd5b50506040516001600160a01b03841692507f11b765170ffadcb5ee454ed4b9c3729b1f83b49b0f72ae3269de145f25362c219150600090a29a9950505050505050505050565b600061026461050d565b6000886001600160a01b03166318160ddd6040518163ffffffff1660e01b815260040160206040518083038186803b15801561029f57600080fd5b505afa1580156102b3573d6000803e3d6000fd5b505050506040513d601f19601f820116820180604052508101906102d7919061064e565b10156102e257600080fd5b6000876001600160a01b03166318160ddd6040518163ffffffff1660e01b815260040160206040518083038186803b15801561031d57600080fd5b505afa158015610331573d6000803e3d6000fd5b505050506040513d601f19601f82011682018060405250810190610355919061064e565b101561036057600080fd5b866001600160a01b0316886001600160a01b0316141561039b5760405162461bcd60e51b815260040161039290610735565b60405180910390fd5b6000604051806020016103ad906105ad565b6020820181038252601f19601f820116604052509050600089898860006040516020016103dd9493929190610666565b6040516020818303038152906040528051906020012090506000818351602085016000f56040516320e9410760e21b81529091506001600160a01b038216906383a5041c9061043c908e908e908e908e908e908e908e906004016106b2565b600060405180830381600087803b15801561045657600080fd5b505af115801561046a573d6000803e3d6000fd5b50506040516001600160a01b03841692507f6b51466ad8b420eb3877793a35877af723337954e3b9e2bd4abe0dfa795972fa9150600090a29a9950505050505050505050565b6104b861050d565b6104c2600061054c565b565b6000546001600160a01b031690565b6104db61050d565b6001600160a01b0381166105015760405162461bcd60e51b8152600401610392906106ef565b61050a8161054c565b50565b61051561059c565b6001600160a01b03166105266104c4565b6001600160a01b0316146104c25760405162461bcd60e51b81526004016103929061076c565b600080546001600160a01b038381166001600160a01b0319831681178455604051919092169283917f8be0079c531659141344cd1fd0a4f28419497f9722a3daafe3b4186f6b6457e09190a35050565b3390565b612a4d806107b783390190565b611b128061320483390190565b6000602082840312156105cb578081fd5b81356105d6816107a1565b9392505050565b600080600080600080600060e0888a0312156105f7578283fd5b8735610602816107a1565b96506020880135610612816107a1565b955060408801359450606088013593506080880135925060a0880135915060c088013561063e816107a1565b8091505092959891949750929550565b60006020828403121561065f578081fd5b5051919050565b6bffffffffffffffffffffffff19606095861b811682529390941b90921660148401526028830152151560f81b604882015260490190565b6001600160a01b0391909116815260200190565b6001600160a01b039788168152958716602087015260408601949094526060850192909252608084015260a083015290911660c082015260e00190565b60208082526026908201527f4f776e61626c653a206e6577206f776e657220697320746865207a65726f206160408201526564647265737360d01b606082015260800190565b6020808252601b908201527f546f6b656e73206d75737420626520626520646966666572656e740000000000604082015260600190565b6020808252818101527f4f776e61626c653a2063616c6c6572206973206e6f7420746865206f776e6572604082015260600190565b6001600160a01b038116811461050a57600080fdfe60806040523480156200001157600080fd5b50620000266200002062000042565b62000046565b60018055600280546001600160a01b0319163317905562000096565b3390565b600080546001600160a01b038381166001600160a01b0319831681178455604051919092169283917f8be0079c531659141344cd1fd0a4f28419497f9722a3daafe3b4186f6b6457e09190a35050565b6129a780620000a66000396000f3fe608060405234801561001057600080fd5b506004361061021c5760003560e01c806383a5041c11610125578063bd617191116100ad578063f2fde38b1161007c578063f2fde38b14610416578063f40f0f5214610429578063f7c618c11461043c578063fd73183714610444578063fe681548146104575761021c565b8063bd617191146103eb578063ccd34cd5146103f3578063edd0d421146103fb578063ee1a62951461040e5761021c565b80639231cf74116100f45780639231cf74146103a257806392e8990e146103aa5780639fd17966146103b2578063a0b40905146103c5578063b6b55f25146103d85761021c565b806383a5041c1461036a5780638da5cb5b1461037d5780638f10369a146103925780638f6629151461039a5761021c565b806354c5aee1116101a857806366fe9f8a1161017757806366fe9f8a14610337578063715018a61461033f5780637bc74225146103475780637c44d17a1461034f57806380dc0672146103625761021c565b806354c5aee1146102f657806355b3cc75146102fe5780636318c2fa1461031157806363645942146103245761021c565b8063392e53cd116101ef578063392e53cd146102885780633c28f9ce1461029d5780633dcad446146102b05780634004c8e7146102d05780635312ea8e146102e35761021c565b80630679e582146102215780631959a0021461023f5780632e1a7d4d146102605780633279beab14610275575b600080fd5b61022961045f565b6040516102369190612712565b60405180910390f35b61025261024d366004611dd6565b610465565b60405161023692919061271b565b61027361026e366004611ee3565b61047e565b005b610273610283366004611ee3565b6107b8565b6102906107d7565b6040516102369190612107565b6102736102ab366004611e0e565b6107e7565b6102c36102be366004611ee3565b610859565b60405161023691906126fe565b6102736102de366004611ee3565b610874565b6102736102f1366004611ee3565b6108dd565b610273610b79565b61027361030c366004611f3c565b610c7e565b61029061031f366004611dd6565b610d32565b610252610332366004611efb565b610d47565b610229610ef3565b610273610ef9565b610229610f0b565b61022961035d366004611dd6565b610f11565b610273610f23565b610273610378366004611e72565b610f52565b610385610f89565b60405161023691906120b6565b610229610f98565b610229610f9e565b610229610fa4565b610290610faa565b6102736103c0366004611e0e565b610fba565b6102736103d3366004611e55565b611067565b6102736103e6366004611ee3565b611117565b610385611524565b610229611533565b610273610409366004611f80565b611539565b610229611690565b610273610424366004611dd6565b611696565b610229610437366004611dd6565b6116cd565b6103856117be565b610385610452366004611ee3565b6117cd565b6103856117e8565b60055481565b600b602052600090815260409020805460019091015482565b6104866117f7565b3360009081526011602052604090205460ff16156104bf5760405162461bcd60e51b81526004016104b6906123b3565b60405180910390fd5b336000908152600b602052604090819020600c5491516331a9108f60e11b8152909130916001600160a01b0390911690636352211e90610503908690600401612712565b60206040518083038186803b15801561051b57600080fd5b505afa15801561052f573d6000803e3d6000fd5b505050506040513d601f19601f820116820180604052508101906105539190611df2565b6001600160a01b0316146105795760405162461bcd60e51b81526004016104b690612578565b6000828152600e60205260409020546001600160a01b031633146105af5760405162461bcd60e51b81526004016104b69061249c565b6000828152600f60205260409020546001600160801b0316806105e45760405162461bcd60e51b81526004016104b690612684565b81548111156106055760405162461bcd60e51b81526004016104b690612465565b61060d611821565b600082600101546009546003548560000154610629919061288b565b6106339190612757565b61063d91906128aa565b90508183600001600082825461065391906128aa565b9091555050600954600354845461066a919061288b565b6106749190612757565b836001018190555081600d600082825461068e91906128aa565b90915550506000848152600e6020908152604080832080546001600160a01b0319169055600f825280832080546001600160801b0319169055338352601090915281208054916106dd836128f1565b9091555050600c54604051632142170760e11b81526001600160a01b03909116906342842e0e90610716903090339089906004016120ca565b600060405180830381600087803b15801561073057600080fd5b505af1158015610744573d6000803e3d6000fd5b50505050600081111561076857600a54610768906001600160a01b031633836118a4565b83336001600160a01b03167ff279e6a1f5e320cca91135676d9cb6e44ca8a08c0b88342bcdb1144f6511b568846040516107a29190612712565b60405180910390a35050506107b56118fa565b50565b6107c0611900565b600a546107b5906001600160a01b031633836118a4565b600254600160a81b900460ff1681565b6107ef6117f7565b6107f7611900565b6108008261193f565b6108146001600160a01b03831633836118a4565b7f74545154aac348a3eac92596bd1971957ca94795f4e954ec5f613b55fab7812982826040516108459291906120ee565b60405180910390a16108556118fa565b5050565b600f602052600090815260409020546001600160801b031681565b61087c611900565b600554421061089d5760405162461bcd60e51b81526004016104b6906121b9565b60088190556040517f3fca6699460f553eae31233dba0b41f635e80f5bd8132d7f2af5456c3e247be0906108d2908390612712565b60405180910390a150565b6108e56117f7565b600c546040516331a9108f60e11b815230916001600160a01b031690636352211e90610915908590600401612712565b60206040518083038186803b15801561092d57600080fd5b505afa158015610941573d6000803e3d6000fd5b505050506040513d601f19601f820116820180604052508101906109659190611df2565b6001600160a01b03161461098b5760405162461bcd60e51b81526004016104b690612578565b6000818152600e60205260409020546001600160a01b031633146109c15760405162461bcd60e51b81526004016104b69061249c565b336000908152601160209081526040808320805460ff19166001908117909155600b8352818420858552600f9093529083205483835590820192909255600d5490916001600160801b0316908111610a305780600d6000828254610a2591906128aa565b90915550610a369050565b6000600d555b6000838152600e6020908152604080832080546001600160a01b0319169055600f825280832080546001600160801b0319169055338352601090915290205415610a9b57336000908152601060205260408120805491610a95836128f1565b91905055505b33600090815260106020526040902054610ac757336000908152601160205260409020805460ff191690555b600c54604051632142170760e11b81526001600160a01b03909116906342842e0e90610afb903090339088906004016120ca565b600060405180830381600087803b158015610b1557600080fd5b505af1158015610b29573d6000803e3d6000fd5b5050505082336001600160a01b03167fbb757047c2b5f3974fe26b7c10f732e7bce710b0952a71082702781e62ae059583604051610b679190612712565b60405180910390a350506107b56118fa565b610b816117f7565b3360009081526011602052604090205460ff1615610bb15760405162461bcd60e51b81526004016104b6906123b3565b336000908152600b60205260409020610bc8611821565b600081600101546009546003548460000154610be4919061288b565b610bee9190612757565b610bf891906128aa565b90508015610c1757600a54610c17906001600160a01b031633836118a4565b6009546003548354610c29919061288b565b610c339190612757565b600183015560405133907f0cb9649b453bd268c42b63cc3e47a59af10a440e3f67242152634a41a30e5e8e90610c6a908490612712565b60405180910390a25050610c7c6118fa565b565b610c86611900565b6005544210610ca75760405162461bcd60e51b81526004016104b6906121b9565b808210610cc65760405162461bcd60e51b81526004016104b6906124fd565b814210610ce55760405162461bcd60e51b81526004016104b6906122ba565b6005829055600481905560068290556040517fa536964ea59c734a26415fc574cf722afc526e94547abf6af36b26d3efcae1f990610d26908490849061271b565b60405180910390a15050565b60116020526000908152604090205460ff1681565b600c546040516331a9108f60e11b8152600091829130916001600160a01b031690636352211e90610d7c908990600401612712565b60206040518083038186803b158015610d9457600080fd5b505afa158015610da8573d6000803e3d6000fd5b505050506040513d601f19601f82011682018060405250810190610dcc9190611df2565b6001600160a01b031614610df25760405162461bcd60e51b81526004016104b690612578565b6000858152600e60205260409020546001600160a01b03163314610e285760405162461bcd60e51b81526004016104b69061249c565b604080516080810182528681526000878152600e602090815290839020546001600160a01b03908116918301919091526001600160801b038088168385015286166060830152600c54925163fc6f786560e01b81529192169063fc6f786590610e959084906004016126bb565b6040805180830381600087803b158015610eae57600080fd5b505af1158015610ec2573d6000803e3d6000fd5b505050506040513d601f19601f82011682018060405250810190610ee69190611f5d565b9097909650945050505050565b60075481565b610f01611900565b610c7c600061196d565b600d5490565b60106020526000908152604090205481565b610f2b611900565b6005544211610f4c5760405162461bcd60e51b81526004016104b690612145565b42600455565b610f608686868686866119bd565b5050600c80546001600160a01b0319166001600160a01b03969096169590951790945550505050565b6000546001600160a01b031690565b60085481565b60035481565b60065481565b600254600160a01b900460ff1681565b610fc26117f7565b610fca611900565b610fd48282611b42565b604051632142170760e11b81526001600160a01b038316906342842e0e90611004903090339086906004016120ca565b600060405180830381600087803b15801561101e57600080fd5b505af1158015611032573d6000803e3d6000fd5b505050507fa87792a513456a87a6d714a52ccfef0f1269fe19d995b0f51f74fe646f6272e282826040516108459291906120ee565b61106f611900565b600254600160a01b900460ff166110985760405162461bcd60e51b81526004016104b690612295565b81156110c95760075481116110bf5760405162461bcd60e51b81526004016104b690612309565b60078190556110e6565b6002805460ff60a01b1916600160a01b8415150217905560006007555b7f241f67ee5f41b7a5cabf911367329be7215900f602ebfc47f89dce2a6bcd847c600754604051610d269190612712565b61111f6117f7565b3360009081526011602052604090205460ff161561114f5760405162461bcd60e51b81526004016104b6906123b3565b600c546040516331a9108f60e11b815233916001600160a01b031690636352211e9061117f908590600401612712565b60206040518083038186803b15801561119757600080fd5b505afa1580156111ab573d6000803e3d6000fd5b505050506040513d601f19601f820116820180604052508101906111cf9190611df2565b6001600160a01b0316146111f55760405162461bcd60e51b81526004016104b69061249c565b6000818152600e60205260409020546001600160a01b031615801561122f57506000818152600f60205260409020546001600160801b0316155b61124b5760405162461bcd60e51b81526004016104b690612655565b6000818152600e602052604080822080546001600160a01b03191633179055600c54905163133f757160e31b81526001600160a01b0391909116906399fbab889061129a908590600401612712565b6101606040518083038186803b1580156112b357600080fd5b505afa1580156112c7573d6000803e3d6000fd5b505050506040513d601f19601f820116820180604052508101906112eb9190611fcc565b5050509750505050505050506000816001600160801b0316116113205760405162461bcd60e51b81526004016104b690612340565b336000908152600b60205260409020600254600160a01b900460ff1615611377576007548154611359906001600160801b03851661273f565b11156113775760405162461bcd60e51b81526004016104b6906123fe565b6000838152600f6020526040902080546001600160801b0319166001600160801b0384161790556113a6611821565b8054156113fe576000816001015460095460035484600001546113c9919061288b565b6113d39190612757565b6113dd91906128aa565b905080156113fc57600a546113fc906001600160a01b031633836118a4565b505b816001600160801b031681600001600082825461141b919061273f565b90915550506009546003548254611432919061288b565b61143c9190612757565b8160010181905550816001600160801b0316600d600082825461145f919061273f565b909155505033600090815260106020526040812080549161147f83612908565b9091555050600c546040516323b872dd60e01b81526001600160a01b03909116906323b872dd906114b8903390309088906004016120ca565b600060405180830381600087803b1580156114d257600080fd5b505af11580156114e6573d6000803e3d6000fd5b5050505082336001600160a01b03167f90890809c654f11d6e72a28fa60149770a0d11ec6c92319d6ceb2bb0a4ea1a1584604051610b6791906126fe565b6002546001600160a01b031681565b60095481565b6115416117f7565b600c546040516331a9108f60e11b815230916001600160a01b031690636352211e90611571908790600401612712565b60206040518083038186803b15801561158957600080fd5b505afa15801561159d573d6000803e3d6000fd5b505050506040513d601f19601f820116820180604052508101906115c19190611df2565b6001600160a01b0316146115e75760405162461bcd60e51b81526004016104b690612578565b6000838152600e60205260409020546001600160a01b0316331461161d5760405162461bcd60e51b81526004016104b69061249c565b600c5460405163edd0d42160e01b81526001600160a01b039091169063edd0d4219061165190869086908690600401612729565b600060405180830381600087803b15801561166b57600080fd5b505af115801561167f573d6000803e3d6000fd5b5050505061168b6118fa565b505050565b60045481565b61169e611900565b6001600160a01b0381166116c45760405162461bcd60e51b81526004016104b690612173565b6107b58161196d565b6001600160a01b0381166000908152600b60205260408120816116ee610f0b565b90506006544211801561170057508015155b1561178957600061171360065442611b90565b9050600060085482611725919061288b565b905060008360095483611738919061288b565b6117429190612757565b60035461174f919061273f565b90508460010154600954828760000154611769919061288b565b6117739190612757565b61177d91906128aa565b955050505050506117b9565b600182015460095460035484546117a0919061288b565b6117aa9190612757565b6117b491906128aa565b925050505b919050565b600a546001600160a01b031681565b600e602052600090815260409020546001600160a01b031681565b600c546001600160a01b031681565b6002600154141561181a5760405162461bcd60e51b81526004016104b6906125f9565b6002600155565b600654421161182f57610c7c565b6000611839610f0b565b90508061184a575042600655610c7c565b600061185860065442611b90565b905060006008548261186a919061288b565b9050826009548261187b919061288b565b6118859190612757565b60036000828254611896919061273f565b909155505042600655505050565b61168b8363a9059cbb60e01b84846040516024016118c39291906120ee565b60408051601f198184030181529190526020810180516001600160e01b03166001600160e01b031990931692909217909152611bd1565b60018055565b611908611c63565b6001600160a01b0316611919610f89565b6001600160a01b031614610c7c5760405162461bcd60e51b81526004016104b690612260565b600a546001600160a01b03828116911614156107b55760405162461bcd60e51b81526004016104b690612435565b600080546001600160a01b038381166001600160a01b0319831681178455604051919092169283917f8be0079c531659141344cd1fd0a4f28419497f9722a3daafe3b4186f6b6457e09190a35050565b600254600160a81b900460ff16156119e75760405162461bcd60e51b81526004016104b69061254b565b6002546001600160a01b03163314611a115760405162461bcd60e51b81526004016104b690612630565b6002805460ff60a81b1916600160a81b179055600a80546001600160a01b0388166001600160a01b03199091161790556008859055600584905560048390558115611a6f576002805460ff60a01b1916600160a01b17905560078290555b600a546040805163313ce56760e01b815290516000926001600160a01b03169163313ce567916004808301926020929190829003018186803b158015611ab457600080fd5b505afa158015611ac8573d6000803e3d6000fd5b505050506040513d601f19601f82011682018060405250810190611aec9190611fab565b60ff169050601e8110611b115760405162461bcd60e51b81526004016104b6906121e3565b611b1c81601e6128aa565b611b2790600a6127bd565b600955600554600655611b3982611696565b50505050505050565b600c546001600160a01b038381169116141580611b7457506000818152600e60205260409020546001600160a01b0316155b6108555760405162461bcd60e51b81526004016104b690612383565b60006004548211611bac57611ba583836128aa565b9050611bcb565b6004548310611bbd57506000611bcb565b82600454611ba591906128aa565b92915050565b6000611c26826040518060400160405280602081526020017f5361666545524332303a206c6f772d6c6576656c2063616c6c206661696c6564815250856001600160a01b0316611c679092919063ffffffff16565b9050805160001480611c47575080806020019051810190611c479190611e39565b61168b5760405162461bcd60e51b81526004016104b6906125af565b3390565b6060611c768484600085611c80565b90505b9392505050565b606082471015611ca25760405162461bcd60e51b81526004016104b69061221a565b600080866001600160a01b03168587604051611cbe919061209a565b60006040518083038185875af1925050503d8060008114611cfb576040519150601f19603f3d011682016040523d82523d6000602084013e611d00565b606091505b5091509150611d1187838387611d1e565b925050505b949350505050565b60608315611d58578251611d5157611d3585611d62565b611d515760405162461bcd60e51b81526004016104b6906124c6565b5081611d16565b611d168383611d71565b6001600160a01b03163b151590565b815115611d815781518083602001fd5b8060405162461bcd60e51b81526004016104b69190612112565b80516117b981612939565b8051600281900b81146117b957600080fd5b80516117b98161295c565b805162ffffff811681146117b957600080fd5b600060208284031215611de7578081fd5b8135611c7981612939565b600060208284031215611e03578081fd5b8151611c7981612939565b60008060408385031215611e20578081fd5b8235611e2b81612939565b946020939093013593505050565b600060208284031215611e4a578081fd5b8151611c798161294e565b60008060408385031215611e67578182fd5b8235611e2b8161294e565b600080600080600080600060e0888a031215611e8c578283fd5b8735611e9781612939565b96506020880135611ea781612939565b955060408801359450606088013593506080880135925060a0880135915060c0880135611ed381612939565b8091505092959891949750929550565b600060208284031215611ef4578081fd5b5035919050565b600080600060608486031215611f0f578283fd5b833592506020840135611f218161295c565b91506040840135611f318161295c565b809150509250925092565b60008060408385031215611f4e578182fd5b50508035926020909101359150565b60008060408385031215611f6f578182fd5b505080516020909101519092909150565b600080600060608486031215611f94578283fd5b505081359360208301359350604090920135919050565b600060208284031215611fbc578081fd5b815160ff81168114611c79578182fd5b60008060008060008060008060008060006101608c8e031215611fed578485fd5b8b516bffffffffffffffffffffffff81168114612008578586fd5b60208d0151909b5061201981612939565b60408d0151909a5061202a81612939565b985061203860608d01611d9b565b975061204660808d01611dc3565b965061205460a08d01611da6565b955061206260c08d01611da6565b945061207060e08d01611db8565b93506101008c015192506101208c015191506101408c015190509295989b509295989b9093969950565b600082516120ac8184602087016128c1565b9190910192915050565b6001600160a01b0391909116815260200190565b6001600160a01b039384168152919092166020820152604081019190915260600190565b6001600160a01b03929092168252602082015260400190565b901515815260200190565b60006020825282518060208401526121318160408501602087016128c1565b601f01601f19169190910160400192915050565b602080825260149082015273141bdbdb081a185cc81b9bdd081cdd185c9d195960621b604082015260600190565b60208082526026908201527f4f776e61626c653a206e6577206f776e657220697320746865207a65726f206160408201526564647265737360d01b606082015260800190565b60208082526010908201526f141bdbdb081a185cc81cdd185c9d195960821b604082015260600190565b6020808252601f908201527f446563696d616c73206d75737420626520696e666572696f7220746f20333000604082015260600190565b60208082526026908201527f416464726573733a20696e73756666696369656e742062616c616e636520666f6040820152651c8818d85b1b60d21b606082015260800190565b6020808252818101527f4f776e61626c653a2063616c6c6572206973206e6f7420746865206f776e6572604082015260600190565b6020808252600b908201526a135d5cdd081899481cd95d60aa1b604082015260600190565b6020808252602f908201527f4e65772073746172742074696d65206d7573742062652068696768657220746860408201526e616e2063757272656e742074696d6560881b606082015260800190565b60208082526018908201527f4e6577206c696d6974206d757374206265206869676865720000000000000000604082015260600190565b60208082526023908201527f43616e6e6f74206465706f7369742061207a65726f2d6c69717569646974792060408201526213919560ea1b606082015260800190565b60208082526016908201527510d85b9b9bdd0818994818481cdd185ad9590813919560521b604082015260600190565b6020808252602b908201527f4d6574686f642064697361626c65642064756520746f20656d657267656e637960408201526a081dda5d1a191c985dd85b60aa1b606082015260800190565b60208082526017908201527f5573657220616d6f756e742061626f7665206c696d6974000000000000000000604082015260600190565b60208082526016908201527521b0b73737ba103132903932bbb0b932103a37b5b2b760511b604082015260600190565b6020808252601b908201527f416d6f756e7420746f20776974686472617720746f6f20686967680000000000604082015260600190565b60208082526010908201526f139bdd081bdddb995c881bd98813919560821b604082015260600190565b6020808252601d908201527f416464726573733a2063616c6c20746f206e6f6e2d636f6e7472616374000000604082015260600190565b6020808252602e908201527f4e65772073746172742074696d65206d757374206265206c6f7765722074686160408201526d6e206e657720656e642074696d6560901b606082015260800190565b602080825260139082015272105b1c9958591e481a5b9a5d1a585b1a5e9959606a1b604082015260600190565b6020808252601e908201527f4e6f74206465706f736974656420746f207468697320636f6e74726163740000604082015260600190565b6020808252602a908201527f5361666545524332303a204552433230206f7065726174696f6e20646964206e6040820152691bdd081cdd58d8d9595960b21b606082015260800190565b6020808252601f908201527f5265656e7472616e637947756172643a207265656e7472616e742063616c6c00604082015260600190565b6020808252600b908201526a4e6f7420666163746f727960a81b604082015260600190565b60208082526015908201527413919508185b1c9958591e4819195c1bdcda5d1959605a1b604082015260600190565b60208082526017908201527f416d6f756e74206d75737420626520706f736974697665000000000000000000604082015260600190565b815181526020808301516001600160a01b0316908201526040808301516001600160801b0390811691830191909152606092830151169181019190915260800190565b6001600160801b0391909116815260200190565b90815260200190565b918252602082015260400190565b9283526020830191909152604082015260600190565b6000821982111561275257612752612923565b500190565b60008261277257634e487b7160e01b81526012600452602481fd5b500490565b80825b600180861161278957506127b4565b81870482111561279b5761279b612923565b808616156127a857918102915b9490941c93800261277a565b94509492505050565b6000611c7960001984846000826127d657506001611c79565b816127e357506000611c79565b81600181146127f9576002811461280357612830565b6001915050611c79565b60ff84111561281457612814612923565b6001841b91508482111561282a5761282a612923565b50611c79565b5060208310610133831016604e8410600b8410161715612863575081810a8381111561285e5761285e612923565b611c79565b6128708484846001612777565b80860482111561288257612882612923565b02949350505050565b60008160001904831182151516156128a5576128a5612923565b500290565b6000828210156128bc576128bc612923565b500390565b60005b838110156128dc5781810151838201526020016128c4565b838111156128eb576000848401525b50505050565b60008161290057612900612923565b506000190190565b600060001982141561291c5761291c612923565b5060010190565b634e487b7160e01b600052601160045260246000fd5b6001600160a01b03811681146107b557600080fd5b80151581146107b557600080fd5b6001600160801b03811681146107b557600080fdfea26469706673582212204445721e7d30e49f5de0462e0dcebbf662df54077132befd70315ab65d42de7864736f6c63430008010033608060405234801561001057600080fd5b5061002161001c61003c565b610040565b60018055600280546001600160a01b03191633179055610090565b3390565b600080546001600160a01b038381166001600160a01b0319831681178455604051919092169283917f8be0079c531659141344cd1fd0a4f28419497f9722a3daafe3b4186f6b6457e09190a35050565b611a738061009f6000396000f3fe608060405234801561001057600080fd5b50600436106101cf5760003560e01c80638f10369a11610104578063bd617191116100a2578063ee1a629511610071578063ee1a62951461034a578063f2fde38b14610352578063f40f0f5214610365578063f7c618c114610378576101cf565b8063bd6171911461032a578063cc7a262e14610332578063ccd34cd51461033a578063db2e21bc14610342576101cf565b806392e8990e116100de57806392e8990e146102e95780639fd17966146102f1578063a0b4090514610304578063b6b55f2514610317576101cf565b80638f10369a146102d15780638f662915146102d95780639231cf74146102e1576101cf565b806355b3cc75116101715780637bc742251161014b5780637bc742251461029957806380dc0672146102a157806383a5041c146102a95780638da5cb5b146102bc576101cf565b806355b3cc751461027657806366fe9f8a14610289578063715018a614610291576101cf565b80633279beab116101ad5780633279beab14610228578063392e53cd1461023b5780633c28f9ce146102505780634004c8e714610263576101cf565b80630679e582146101d45780631959a002146101f25780632e1a7d4d14610213575b600080fd5b6101dc610380565b6040516101e9919061183f565b60405180910390f35b610205610200366004611210565b610386565b6040516101e9929190611848565b610226610221366004611301565b61039f565b005b610226610236366004611301565b6104d5565b6102436104f4565b6040516101e991906113e0565b61022661025e36600461122c565b610504565b610226610271366004611301565b610576565b610226610284366004611331565b6105df565b6101dc610693565b610226610699565b6101dc6106ad565b610226610733565b6102266102b7366004611290565b610762565b6102c4610799565b6040516101e9919061138f565b6101dc6107a8565b6101dc6107ae565b6101dc6107b4565b6102436107ba565b6102266102ff36600461122c565b6107ca565b610226610312366004611273565b610877565b610226610325366004611301565b610927565b6102c4610a78565b6102c4610a87565b6101dc610a96565b610226610a9c565b6101dc610b23565b610226610360366004611210565b610b29565b6101dc610373366004611210565b610b60565b6102c4610c51565b60055481565b600b602052600090815260409020805460019091015482565b6103a7610c60565b336000908152600b6020526040902080548211156103e05760405162461bcd60e51b81526004016103d790611680565b60405180910390fd5b6103e8610c8a565b60008160010154600954600354846000015461040491906119a2565b61040e919061186e565b61041891906119c1565b90508215610450578282600001600082825461043491906119c1565b9091555050600c54610450906001600160a01b03163385610d0d565b801561046d57600a5461046d906001600160a01b03163383610d0d565b600954600354835461047f91906119a2565b610489919061186e565b600183015560405133907f884edad9ce6fa2440d8a54cc123490eb96d2768479d49ff9c7366125a9424364906104c090869061183f565b60405180910390a250506104d2610d68565b50565b6104dd610d6e565b600a546104d2906001600160a01b03163383610d0d565b600254600160a81b900460ff1681565b61050c610c60565b610514610d6e565b61051d82610dad565b6105316001600160a01b0383163383610d0d565b7f74545154aac348a3eac92596bd1971957ca94795f4e954ec5f613b55fab7812982826040516105629291906113c7565b60405180910390a1610572610d68565b5050565b61057e610d6e565b600554421061059f5760405162461bcd60e51b81526004016103d790611492565b60088190556040517f3fca6699460f553eae31233dba0b41f635e80f5bd8132d7f2af5456c3e247be0906105d490839061183f565b60405180910390a150565b6105e7610d6e565b60055442106106085760405162461bcd60e51b81526004016103d790611492565b8082106106275760405162461bcd60e51b81526004016103d7906116ee565b8142106106465760405162461bcd60e51b81526004016103d790611593565b6005829055600481905560068290556040517fa536964ea59c734a26415fc574cf722afc526e94547abf6af36b26d3efcae1f9906106879084908490611848565b60405180910390a15050565b60075481565b6106a1610d6e565b6106ab6000610e09565b565b600c546040516370a0823160e01b81526000916001600160a01b0316906370a08231906106de90309060040161138f565b60206040518083038186803b1580156106f657600080fd5b505afa15801561070a573d6000803e3d6000fd5b505050506040513d601f19601f8201168201806040525081019061072e9190611319565b905090565b61073b610d6e565b600554421161075c5760405162461bcd60e51b81526004016103d79061141e565b42600455565b610770868686868686610e59565b5050600c80546001600160a01b0319166001600160a01b03969096169590951790945550505050565b6000546001600160a01b031690565b60085481565b60035481565b60065481565b600254600160a01b900460ff1681565b6107d2610c60565b6107da610d6e565b6107e48282610572565b604051632142170760e11b81526001600160a01b038316906342842e0e90610814903090339086906004016113a3565b600060405180830381600087803b15801561082e57600080fd5b505af1158015610842573d6000803e3d6000fd5b505050507fa87792a513456a87a6d714a52ccfef0f1269fe19d995b0f51f74fe646f6272e282826040516105629291906113c7565b61087f610d6e565b600254600160a01b900460ff166108a85760405162461bcd60e51b81526004016103d79061156e565b81156108d95760075481116108cf5760405162461bcd60e51b81526004016103d7906115e2565b60078190556108f6565b6002805460ff60a01b1916600160a01b8415150217905560006007555b7f241f67ee5f41b7a5cabf911367329be7215900f602ebfc47f89dce2a6bcd847c600754604051610687919061183f565b61092f610c60565b336000908152600b60205260409020600254600160a01b900460ff161561097d57600754815461095f9084611856565b111561097d5760405162461bcd60e51b81526004016103d790611619565b610985610c8a565b8054156109dd576000816001015460095460035484600001546109a891906119a2565b6109b2919061186e565b6109bc91906119c1565b905080156109db57600a546109db906001600160a01b03163383610d0d565b505b8115610a1457818160000160008282546109f79190611856565b9091555050600c54610a14906001600160a01b0316333085610fde565b6009546003548254610a2691906119a2565b610a30919061186e565b600182015560405133907fe1fffcc4923d04b559f4d29a8bfc6cda04eb5b0d3c460751c2402c5c5cc9109c90610a6790859061183f565b60405180910390a2506104d2610d68565b6002546001600160a01b031681565b600c546001600160a01b031681565b60095481565b610aa4610c60565b336000908152600b6020526040812080548282556001820192909255908015610ade57600c54610ade906001600160a01b03163383610d0d565b815460405133917f5fafa99d0643513820be26656b45130b01e1c03062e1266bf36f88cbd3bd969591610b11919061183f565b60405180910390a250506106ab610d68565b60045481565b610b31610d6e565b6001600160a01b038116610b575760405162461bcd60e51b81526004016103d79061144c565b6104d281610e09565b6001600160a01b0381166000908152600b6020526040812081610b816106ad565b905060065442118015610b9357508015155b15610c1c576000610ba660065442611005565b9050600060085482610bb891906119a2565b905060008360095483610bcb91906119a2565b610bd5919061186e565b600354610be29190611856565b90508460010154600954828760000154610bfc91906119a2565b610c06919061186e565b610c1091906119c1565b95505050505050610c4c565b60018201546009546003548454610c3391906119a2565b610c3d919061186e565b610c4791906119c1565b925050505b919050565b600a546001600160a01b031681565b60026001541415610c835760405162461bcd60e51b81526004016103d7906117e3565b6002600155565b6006544211610c98576106ab565b6000610ca26106ad565b905080610cb35750426006556106ab565b6000610cc160065442611005565b9050600060085482610cd391906119a2565b90508260095482610ce491906119a2565b610cee919061186e565b60036000828254610cff9190611856565b909155505042600655505050565b610d638363a9059cbb60e01b8484604051602401610d2c9291906113c7565b60408051601f198184030181529190526020810180516001600160e01b03166001600160e01b031990931692909217909152611046565b505050565b60018055565b610d766110d8565b6001600160a01b0316610d87610799565b6001600160a01b0316146106ab5760405162461bcd60e51b81526004016103d790611539565b600c546001600160a01b0382811691161415610ddb5760405162461bcd60e51b81526004016103d79061173c565b600a546001600160a01b03828116911614156104d25760405162461bcd60e51b81526004016103d790611650565b600080546001600160a01b038381166001600160a01b0319831681178455604051919092169283917f8be0079c531659141344cd1fd0a4f28419497f9722a3daafe3b4186f6b6457e09190a35050565b600254600160a81b900460ff1615610e835760405162461bcd60e51b81526004016103d79061176c565b6002546001600160a01b03163314610ead5760405162461bcd60e51b81526004016103d79061181a565b6002805460ff60a81b1916600160a81b179055600a80546001600160a01b0388166001600160a01b03199091161790556008859055600584905560048390558115610f0b576002805460ff60a01b1916600160a01b17905560078290555b600a546040805163313ce56760e01b815290516000926001600160a01b03169163313ce567916004808301926020929190829003018186803b158015610f5057600080fd5b505afa158015610f64573d6000803e3d6000fd5b505050506040513d601f19601f82011682018060405250810190610f889190611352565b60ff169050601e8110610fad5760405162461bcd60e51b81526004016103d7906114bc565b610fb881601e6119c1565b610fc390600a6118d4565b600955600554600655610fd582610b29565b50505050505050565b610fff846323b872dd60e01b858585604051602401610d2c939291906113a3565b50505050565b600060045482116110215761101a83836119c1565b9050611040565b600454831061103257506000611040565b8260045461101a91906119c1565b92915050565b600061109b826040518060400160405280602081526020017f5361666545524332303a206c6f772d6c6576656c2063616c6c206661696c6564815250856001600160a01b03166110dc9092919063ffffffff16565b90508051600014806110bc5750808060200190518101906110bc9190611257565b610d635760405162461bcd60e51b81526004016103d790611799565b3390565b60606110eb84846000856110f5565b90505b9392505050565b6060824710156111175760405162461bcd60e51b81526004016103d7906114f3565b600080866001600160a01b031685876040516111339190611373565b60006040518083038185875af1925050503d8060008114611170576040519150601f19603f3d011682016040523d82523d6000602084013e611175565b606091505b509150915061118687838387611193565b925050505b949350505050565b606083156111cd5782516111c6576111aa856111d7565b6111c65760405162461bcd60e51b81526004016103d7906116b7565b508161118b565b61118b83836111e6565b6001600160a01b03163b151590565b8151156111f65781518083602001fd5b8060405162461bcd60e51b81526004016103d791906113eb565b600060208284031215611221578081fd5b81356110ee81611a1a565b6000806040838503121561123e578081fd5b823561124981611a1a565b946020939093013593505050565b600060208284031215611268578081fd5b81516110ee81611a2f565b60008060408385031215611285578182fd5b823561124981611a2f565b600080600080600080600060e0888a0312156112aa578283fd5b87356112b581611a1a565b965060208801356112c581611a1a565b955060408801359450606088013593506080880135925060a0880135915060c08801356112f181611a1a565b8091505092959891949750929550565b600060208284031215611312578081fd5b5035919050565b60006020828403121561132a578081fd5b5051919050565b60008060408385031215611343578182fd5b50508035926020909101359150565b600060208284031215611363578081fd5b815160ff811681146110ee578182fd5b600082516113858184602087016119d8565b9190910192915050565b6001600160a01b0391909116815260200190565b6001600160a01b039384168152919092166020820152604081019190915260600190565b6001600160a01b03929092168252602082015260400190565b901515815260200190565b600060208252825180602084015261140a8160408501602087016119d8565b601f01601f19169190910160400192915050565b602080825260149082015273141bdbdb081a185cc81b9bdd081cdd185c9d195960621b604082015260600190565b60208082526026908201527f4f776e61626c653a206e6577206f776e657220697320746865207a65726f206160408201526564647265737360d01b606082015260800190565b60208082526010908201526f141bdbdb081a185cc81cdd185c9d195960821b604082015260600190565b6020808252601f908201527f446563696d616c73206d75737420626520696e666572696f7220746f20333000604082015260600190565b60208082526026908201527f416464726573733a20696e73756666696369656e742062616c616e636520666f6040820152651c8818d85b1b60d21b606082015260800190565b6020808252818101527f4f776e61626c653a2063616c6c6572206973206e6f7420746865206f776e6572604082015260600190565b6020808252600b908201526a135d5cdd081899481cd95d60aa1b604082015260600190565b6020808252602f908201527f4e65772073746172742074696d65206d7573742062652068696768657220746860408201526e616e2063757272656e742074696d6560881b606082015260800190565b60208082526018908201527f4e6577206c696d6974206d757374206265206869676865720000000000000000604082015260600190565b60208082526017908201527f5573657220616d6f756e742061626f7665206c696d6974000000000000000000604082015260600190565b60208082526016908201527521b0b73737ba103132903932bbb0b932103a37b5b2b760511b604082015260600190565b6020808252601b908201527f416d6f756e7420746f20776974686472617720746f6f20686967680000000000604082015260600190565b6020808252601d908201527f416464726573733a2063616c6c20746f206e6f6e2d636f6e7472616374000000604082015260600190565b6020808252602e908201527f4e65772073746172742074696d65206d757374206265206c6f7765722074686160408201526d6e206e657720656e642074696d6560901b606082015260800190565b60208082526016908201527521b0b73737ba1031329039ba30b5b2b2103a37b5b2b760511b604082015260600190565b602080825260139082015272105b1c9958591e481a5b9a5d1a585b1a5e9959606a1b604082015260600190565b6020808252602a908201527f5361666545524332303a204552433230206f7065726174696f6e20646964206e6040820152691bdd081cdd58d8d9595960b21b606082015260800190565b6020808252601f908201527f5265656e7472616e637947756172643a207265656e7472616e742063616c6c00604082015260600190565b6020808252600b908201526a4e6f7420666163746f727960a81b604082015260600190565b90815260200190565b918252602082015260400190565b6000821982111561186957611869611a04565b500190565b60008261188957634e487b7160e01b81526012600452602481fd5b500490565b80825b60018086116118a057506118cb565b8187048211156118b2576118b2611a04565b808616156118bf57918102915b9490941c938002611891565b94509492505050565b60006110ee60001984846000826118ed575060016110ee565b816118fa575060006110ee565b8160018114611910576002811461191a57611947565b60019150506110ee565b60ff84111561192b5761192b611a04565b6001841b91508482111561194157611941611a04565b506110ee565b5060208310610133831016604e8410600b841016171561197a575081810a8381111561197557611975611a04565b6110ee565b611987848484600161188e565b80860482111561199957611999611a04565b02949350505050565b60008160001904831182151516156119bc576119bc611a04565b500290565b6000828210156119d3576119d3611a04565b500390565b60005b838110156119f35781810151838201526020016119db565b83811115610fff5750506000910152565b634e487b7160e01b600052601160045260246000fd5b6001600160a01b03811681146104d257600080fd5b80151581146104d257600080fdfea264697066735822122067f67249cd410412fa2fdf12f2038fb4fa64fb056436c601040a0fc1fbf9b69f64736f6c63430008010033a26469706673582212208efc067ad3d3ff30a42d45dcb32eae81eb3f7aaa99085c494f90982513dc6ebc64736f6c63430008010033",
  "linkReferences": {},
  "deployedLinkReferences": {}
}