{
  "_format": "hh-sol-artifact-1",
  "contractName": "VinuEarnLPInitializable",
  "sourceName": "contracts/VinuEarnLPInitializable.sol",
  "abi": [
    {
      "anonymous": false,
      "inputs": [
        {
          "indexed": false,
          "internalType": "address",
          "name": "nftAddress",
          "type": "address"
        },
        {
          "indexed": false,
          "internalType": "uint256",
          "name": "nftId",
          "type": "uint256"
        }
      ],
      "name": "AdminNFTRecovery",
      "type": "event"
    },
    {
      "anonymous": false,
      "inputs": [
        {
          "indexed": false,
          "internalType": "address",
          "name": "tokenRecovered",
          "type": "address"
        },
        {
          "indexed": false,
          "internalType": "uint256",
          "name": "amount",
          "type": "uint256"
        }
      ],
      "name": "AdminTokenRecovery",
      "type": "event"
    },
    {
      "anonymous": false,
      "inputs": [
        {
          "indexed": true,
          "internalType": "address",
          "name": "user",
          "type": "address"
        },
        {
          "indexed": false,
          "internalType": "uint256",
          "name": "reward",
          "type": "uint256"
        }
      ],
      "name": "CollectReward",
      "type": "event"
    },
    {
      "anonymous": false,
      "inputs": [
        {
          "indexed": true,
          "internalType": "address",
          "name": "user",
          "type": "address"
        },
        {
          "indexed": true,
          "internalType": "uint256",
          "name": "id",
          "type": "uint256"
        },
        {
          "indexed": false,
          "internalType": "uint256",
          "name": "liquidity",
          "type": "uint256"
        }
      ],
      "name": "Deposit",
      "type": "event"
    },
    {
      "anonymous": false,
      "inputs": [
        {
          "indexed": true,
          "internalType": "address",
          "name": "user",
          "type": "address"
        },
        {
          "indexed": true,
          "internalType": "uint256",
          "name": "id",
          "type": "uint256"
        },
        {
          "indexed": false,
          "internalType": "uint256",
          "name": "liquidity",
          "type": "uint256"
        }
      ],
      "name": "EmergencyWithdraw",
      "type": "event"
    },
    {
      "anonymous": false,
      "inputs": [
        {
          "indexed": false,
          "internalType": "uint256",
          "name": "poolLimitPerUser",
          "type": "uint256"
        }
      ],
      "name": "NewPoolLimit",
      "type": "event"
    },
    {
      "anonymous": false,
      "inputs": [
        {
          "indexed": false,
          "internalType": "uint256",
          "name": "rewardPerSecond",
          "type": "uint256"
        }
      ],
      "name": "NewRewardPerSecond",
      "type": "event"
    },
    {
      "anonymous": false,
      "inputs": [
        {
          "indexed": false,
          "internalType": "uint256",
          "name": "bonusStartTime",
          "type": "uint256"
        },
        {
          "indexed": false,
          "internalType": "uint256",
          "name": "bonusEndTime",
          "type": "uint256"
        }
      ],
      "name": "NewStartAndEndTimes",
      "type": "event"
    },
    {
      "anonymous": false,
      "inputs": [
        {
          "indexed": true,
          "internalType": "address",
          "name": "previousOwner",
          "type": "address"
        },
        {
          "indexed": true,
          "internalType": "address",
          "name": "newOwner",
          "type": "address"
        }
      ],
      "name": "OwnershipTransferred",
      "type": "event"
    },
    {
      "anonymous": false,
      "inputs": [
        {
          "indexed": false,
          "internalType": "uint256",
          "name": "timestamp",
          "type": "uint256"
        }
      ],
      "name": "RewardsStop",
      "type": "event"
    },
    {
      "anonymous": false,
      "inputs": [
        {
          "indexed": true,
          "internalType": "address",
          "name": "user",
          "type": "address"
        },
        {
          "indexed": true,
          "internalType": "uint256",
          "name": "id",
          "type": "uint256"
        },
        {
          "indexed": false,
          "internalType": "uint256",
          "name": "liquidity",
          "type": "uint256"
        }
      ],
      "name": "Withdraw",
      "type": "event"
    },
    {
      "inputs": [],
      "name": "PRECISION_FACTOR",
      "outputs": [
        {
          "internalType": "uint256",
          "name": "",
          "type": "uint256"
        }
      ],
      "stateMutability": "view",
      "type": "function"
    },
    {
      "inputs": [],
      "name": "SMART_CHEF_FACTORY",
      "outputs": [
        {
          "internalType": "address",
          "name": "",
          "type": "address"
        }
      ],
      "stateMutability": "view",
      "type": "function"
    },
    {
      "inputs": [],
      "name": "accTokenPerShare",
      "outputs": [
        {
          "internalType": "uint256",
          "name": "",
          "type": "uint256"
        }
      ],
      "stateMutability": "view",
      "type": "function"
    },
    {
      "inputs": [],
      "name": "bonusEndTime",
      "outputs": [
        {
          "internalType": "uint256",
          "name": "",
          "type": "uint256"
        }
      ],
      "stateMutability": "view",
      "type": "function"
    },
    {
      "inputs": [],
      "name": "bonusStartTime",
      "outputs": [
        {
          "internalType": "uint256",
          "name": "",
          "type": "uint256"
        }
      ],
      "stateMutability": "view",
      "type": "function"
    },
    {
      "inputs": [
        {
          "internalType": "uint256",
          "name": "_id",
          "type": "uint256"
        },
        {
          "internalType": "uint128",
          "name": "_amount0Max",
          "type": "uint128"
        },
        {
          "internalType": "uint128",
          "name": "_amount1Max",
          "type": "uint128"
        }
      ],
      "name": "collectRevenue",
      "outputs": [
        {
          "internalType": "uint256",
          "name": "amount0",
          "type": "uint256"
        },
        {
          "internalType": "uint256",
          "name": "amount1",
          "type": "uint256"
        }
      ],
      "stateMutability": "nonpayable",
      "type": "function"
    },
    {
      "inputs": [],
      "name": "collectReward",
      "outputs": [],
      "stateMutability": "nonpayable",
      "type": "function"
    },
    {
      "inputs": [
        {
          "internalType": "uint256",
          "name": "_id",
          "type": "uint256"
        }
      ],
      "name": "deposit",
      "outputs": [],
      "stateMutability": "nonpayable",
      "type": "function"
    },
    {
      "inputs": [
        {
          "internalType": "address",
          "name": "",
          "type": "address"
        }
      ],
      "name": "depositedCount",
      "outputs": [
        {
          "internalType": "uint256",
          "name": "",
          "type": "uint256"
        }
      ],
      "stateMutability": "view",
      "type": "function"
    },
    {
      "inputs": [
        {
          "internalType": "uint256",
          "name": "_amount",
          "type": "uint256"
        }
      ],
      "name": "emergencyRewardWithdraw",
      "outputs": [],
      "stateMutability": "nonpayable",
      "type": "function"
    },
    {
      "inputs": [
        {
          "internalType": "uint256",
          "name": "_id",
          "type": "uint256"
        }
      ],
      "name": "emergencyWithdraw",
      "outputs": [],
      "stateMutability": "nonpayable",
      "type": "function"
    },
    {
      "inputs": [
        {
          "internalType": "address",
          "name": "",
          "type": "address"
        }
      ],
      "name": "emergencyWithdrawalInProgress",
      "outputs": [
        {
          "internalType": "bool",
          "name": "",
          "type": "bool"
        }
      ],
      "stateMutability": "view",
      "type": "function"
    },
    {
      "inputs": [],
      "name": "getTotalStake",
      "outputs": [
        {
          "internalType": "uint256",
          "name": "",
          "type": "uint256"
        }
      ],
      "stateMutability": "view",
      "type": "function"
    },
    {
      "inputs": [],
      "name": "hasUserLimit",
      "outputs": [
        {
          "internalType": "bool",
          "name": "",
          "type": "bool"
        }
      ],
      "stateMutability": "view",
      "type": "function"
    },
    {
      "inputs": [
        {
          "internalType": "contract IVinuSwapNFT",
          "name": "_stakedNft",
          "type": "address"
        },
        {
          "internalType": "contract IERC20WithDecimals",
          "name": "_rewardToken",
          "type": "address"
        },
        {
          "internalType": "uint256",
          "name": "_rewardPerSecond",
          "type": "uint256"
        },
        {
          "internalType": "uint256",
          "name": "_bonusStartTime",
          "type": "uint256"
        },
        {
          "internalType": "uint256",
          "name": "_bonusEndTime",
          "type": "uint256"
        },
        {
          "internalType": "uint256",
          "name": "_poolLimitPerUser",
          "type": "uint256"
        },
        {
          "internalType": "address",
          "name": "_owner",
          "type": "address"
        }
      ],
      "name": "initialize",
      "outputs": [],
      "stateMutability": "nonpayable",
      "type": "function"
    },
    {
      "inputs": [],
      "name": "isInitialized",
      "outputs": [
        {
          "internalType": "bool",
          "name": "",
          "type": "bool"
        }
      ],
      "stateMutability": "view",
      "type": "function"
    },
    {
      "inputs": [],
      "name": "lastRewardTime",
      "outputs": [
        {
          "internalType": "uint256",
          "name": "",
          "type": "uint256"
        }
      ],
      "stateMutability": "view",
      "type": "function"
    },
    {
      "inputs": [
        {
          "internalType": "uint256",
          "name": "",
          "type": "uint256"
        }
      ],
      "name": "liquidityAtTimeOfDeposit",
      "outputs": [
        {
          "internalType": "uint128",
          "name": "",
          "type": "uint128"
        }
      ],
      "stateMutability": "view",
      "type": "function"
    },
    {
      "inputs": [
        {
          "internalType": "uint256",
          "name": "_id",
          "type": "uint256"
        },
        {
          "internalType": "uint256",
          "name": "_lockedUntil",
          "type": "uint256"
        },
        {
          "internalType": "uint256",
          "name": "_deadline",
          "type": "uint256"
        }
      ],
      "name": "lock",
      "outputs": [],
      "stateMutability": "nonpayable",
      "type": "function"
    },
    {
      "inputs": [
        {
          "internalType": "uint256",
          "name": "",
          "type": "uint256"
        }
      ],
      "name": "nftOwner",
      "outputs": [
        {
          "internalType": "address",
          "name": "",
          "type": "address"
        }
      ],
      "stateMutability": "view",
      "type": "function"
    },
    {
      "inputs": [],
      "name": "owner",
      "outputs": [
        {
          "internalType": "address",
          "name": "",
          "type": "address"
        }
      ],
      "stateMutability": "view",
      "type": "function"
    },
    {
      "inputs": [
        {
          "internalType": "address",
          "name": "_user",
          "type": "address"
        }
      ],
      "name": "pendingReward",
      "outputs": [
        {
          "internalType": "uint256",
          "name": "",
          "type": "uint256"
        }
      ],
      "stateMutability": "view",
      "type": "function"
    },
    {
      "inputs": [],
      "name": "poolLimitPerUser",
      "outputs": [
        {
          "internalType": "uint256",
          "name": "",
          "type": "uint256"
        }
      ],
      "stateMutability": "view",
      "type": "function"
    },
    {
      "inputs": [
        {
          "internalType": "address",
          "name": "_nftAddress",
          "type": "address"
        },
        {
          "internalType": "uint256",
          "name": "_nftId",
          "type": "uint256"
        }
      ],
      "name": "recoverWrongNft",
      "outputs": [],
      "stateMutability": "nonpayable",
      "type": "function"
    },
    {
      "inputs": [
        {
          "internalType": "address",
          "name": "_tokenAddress",
          "type": "address"
        },
        {
          "internalType": "uint256",
          "name": "_tokenAmount",
          "type": "uint256"
        }
      ],
      "name": "recoverWrongToken",
      "outputs": [],
      "stateMutability": "nonpayable",
      "type": "function"
    },
    {
      "inputs": [],
      "name": "renounceOwnership",
      "outputs": [],
      "stateMutability": "nonpayable",
      "type": "function"
    },
    {
      "inputs": [],
      "name": "rewardPerSecond",
      "outputs": [
        {
          "internalType": "uint256",
          "name": "",
          "type": "uint256"
        }
      ],
      "stateMutability": "view",
      "type": "function"
    },
    {
      "inputs": [],
      "name": "rewardToken",
      "outputs": [
        {
          "internalType": "contract IERC20WithDecimals",
          "name": "",
          "type": "address"
        }
      ],
      "stateMutability": "view",
      "type": "function"
    },
    {
      "inputs": [],
      "name": "stakedNft",
      "outputs": [
        {
          "internalType": "contract IVinuSwapNFT",
          "name": "",
          "type": "address"
        }
      ],
      "stateMutability": "view",
      "type": "function"
    },
    {
      "inputs": [],
      "name": "stopReward",
      "outputs": [],
      "stateMutability": "nonpayable",
      "type": "function"
    },
    {
      "inputs": [
        {
          "internalType": "address",
          "name": "newOwner",
          "type": "address"
        }
      ],
      "name": "transferOwnership",
      "outputs": [],
      "stateMutability": "nonpayable",
      "type": "function"
    },
    {
      "inputs": [
        {
          "internalType": "bool",
          "name": "_hasUserLimit",
          "type": "bool"
        },
        {
          "internalType": "uint256",
          "name": "_poolLimitPerUser",
          "type": "uint256"
        }
      ],
      "name": "updatePoolLimitPerUser",
      "outputs": [],
      "stateMutability": "nonpayable",
      "type": "function"
    },
    {
      "inputs": [
        {
          "internalType": "uint256",
          "name": "_rewardPerSecond",
          "type": "uint256"
        }
      ],
      "name": "updateRewardPerSecond",
      "outputs": [],
      "stateMutability": "nonpayable",
      "type": "function"
    },
    {
      "inputs": [
        {
          "internalType": "uint256",
          "name": "_bonusStartTime",
          "type": "uint256"
        },
        {
          "internalType": "uint256",
          "name": "_bonusEndTime",
          "type": "uint256"
        }
      ],
      "name": "updateStartAndEndTimes",
      "outputs": [],
      "stateMutability": "nonpayable",
      "type": "function"
    },
    {
      "inputs": [
        {
          "internalType": "address",
          "name": "",
          "type": "address"
        }
      ],
      "name": "userInfo",
      "outputs": [
        {
          "internalType": "uint256",
          "name": "amount",
          "type": "uint256"
        },
        {
          "internalType": "uint256",
          "name": "rewardDebt",
          "type": "uint256"
        }
      ],
      "stateMutability": "view",
      "type": "function"
    },
    {
      "inputs": [
        {
          "internalType": "uint256",
          "name": "_id",
          "type": "uint256"
        }
      ],
      "name": "withdraw",
      "outputs": [],
      "stateMutability": "nonpayable",
      "type": "function"
    }
  ],
  "bytecode": "0x60806040523480156200001157600080fd5b50620000266200002062000042565b62000046565b60018055600280546001600160a01b0319163317905562000096565b3390565b600080546001600160a01b038381166001600160a01b0319831681178455604051919092169283917f8be0079c531659141344cd1fd0a4f28419497f9722a3daafe3b4186f6b6457e09190a35050565b6129a780620000a66000396000f3fe608060405234801561001057600080fd5b506004361061021c5760003560e01c806383a5041c11610125578063bd617191116100ad578063f2fde38b1161007c578063f2fde38b14610416578063f40f0f5214610429578063f7c618c11461043c578063fd73183714610444578063fe681548146104575761021c565b8063bd617191146103eb578063ccd34cd5146103f3578063edd0d421146103fb578063ee1a62951461040e5761021c565b80639231cf74116100f45780639231cf74146103a257806392e8990e146103aa5780639fd17966146103b2578063a0b40905146103c5578063b6b55f25146103d85761021c565b806383a5041c1461036a5780638da5cb5b1461037d5780638f10369a146103925780638f6629151461039a5761021c565b806354c5aee1116101a857806366fe9f8a1161017757806366fe9f8a14610337578063715018a61461033f5780637bc74225146103475780637c44d17a1461034f57806380dc0672146103625761021c565b806354c5aee1146102f657806355b3cc75146102fe5780636318c2fa1461031157806363645942146103245761021c565b8063392e53cd116101ef578063392e53cd146102885780633c28f9ce1461029d5780633dcad446146102b05780634004c8e7146102d05780635312ea8e146102e35761021c565b80630679e582146102215780631959a0021461023f5780632e1a7d4d146102605780633279beab14610275575b600080fd5b61022961045f565b6040516102369190612712565b60405180910390f35b61025261024d366004611dd6565b610465565b60405161023692919061271b565b61027361026e366004611ee3565b61047e565b005b610273610283366004611ee3565b6107b8565b6102906107d7565b6040516102369190612107565b6102736102ab366004611e0e565b6107e7565b6102c36102be366004611ee3565b610859565b60405161023691906126fe565b6102736102de366004611ee3565b610874565b6102736102f1366004611ee3565b6108dd565b610273610b79565b61027361030c366004611f3c565b610c7e565b61029061031f366004611dd6565b610d32565b610252610332366004611efb565b610d47565b610229610ef3565b610273610ef9565b610229610f0b565b61022961035d366004611dd6565b610f11565b610273610f23565b610273610378366004611e72565b610f52565b610385610f89565b60405161023691906120b6565b610229610f98565b610229610f9e565b610229610fa4565b610290610faa565b6102736103c0366004611e0e565b610fba565b6102736103d3366004611e55565b611067565b6102736103e6366004611ee3565b611117565b610385611524565b610229611533565b610273610409366004611f80565b611539565b610229611690565b610273610424366004611dd6565b611696565b610229610437366004611dd6565b6116cd565b6103856117be565b610385610452366004611ee3565b6117cd565b6103856117e8565b60055481565b600b602052600090815260409020805460019091015482565b6104866117f7565b3360009081526011602052604090205460ff16156104bf5760405162461bcd60e51b81526004016104b6906123b3565b60405180910390fd5b336000908152600b602052604090819020600c5491516331a9108f60e11b8152909130916001600160a01b0390911690636352211e90610503908690600401612712565b60206040518083038186803b15801561051b57600080fd5b505afa15801561052f573d6000803e3d6000fd5b505050506040513d601f19601f820116820180604052508101906105539190611df2565b6001600160a01b0316146105795760405162461bcd60e51b81526004016104b690612578565b6000828152600e60205260409020546001600160a01b031633146105af5760405162461bcd60e51b81526004016104b69061249c565b6000828152600f60205260409020546001600160801b0316806105e45760405162461bcd60e51b81526004016104b690612684565b81548111156106055760405162461bcd60e51b81526004016104b690612465565b61060d611821565b600082600101546009546003548560000154610629919061288b565b6106339190612757565b61063d91906128aa565b90508183600001600082825461065391906128aa565b9091555050600954600354845461066a919061288b565b6106749190612757565b836001018190555081600d600082825461068e91906128aa565b90915550506000848152600e6020908152604080832080546001600160a01b0319169055600f825280832080546001600160801b0319169055338352601090915281208054916106dd836128f1565b9091555050600c54604051632142170760e11b81526001600160a01b03909116906342842e0e90610716903090339089906004016120ca565b600060405180830381600087803b15801561073057600080fd5b505af1158015610744573d6000803e3d6000fd5b50505050600081111561076857600a54610768906001600160a01b031633836118a4565b83336001600160a01b03167ff279e6a1f5e320cca91135676d9cb6e44ca8a08c0b88342bcdb1144f6511b568846040516107a29190612712565b60405180910390a35050506107b56118fa565b50565b6107c0611900565b600a546107b5906001600160a01b031633836118a4565b600254600160a81b900460ff1681565b6107ef6117f7565b6107f7611900565b6108008261193f565b6108146001600160a01b03831633836118a4565b7f74545154aac348a3eac92596bd1971957ca94795f4e954ec5f613b55fab7812982826040516108459291906120ee565b60405180910390a16108556118fa565b5050565b600f602052600090815260409020546001600160801b031681565b61087c611900565b600554421061089d5760405162461bcd60e51b81526004016104b6906121b9565b60088190556040517f3fca6699460f553eae31233dba0b41f635e80f5bd8132d7f2af5456c3e247be0906108d2908390612712565b60405180910390a150565b6108e56117f7565b600c546040516331a9108f60e11b815230916001600160a01b031690636352211e90610915908590600401612712565b60206040518083038186803b15801561092d57600080fd5b505afa158015610941573d6000803e3d6000fd5b505050506040513d601f19601f820116820180604052508101906109659190611df2565b6001600160a01b03161461098b5760405162461bcd60e51b81526004016104b690612578565b6000818152600e60205260409020546001600160a01b031633146109c15760405162461bcd60e51b81526004016104b69061249c565b336000908152601160209081526040808320805460ff19166001908117909155600b8352818420858552600f9093529083205483835590820192909255600d5490916001600160801b0316908111610a305780600d6000828254610a2591906128aa565b90915550610a369050565b6000600d555b6000838152600e6020908152604080832080546001600160a01b0319169055600f825280832080546001600160801b0319169055338352601090915290205415610a9b57336000908152601060205260408120805491610a95836128f1565b91905055505b33600090815260106020526040902054610ac757336000908152601160205260409020805460ff191690555b600c54604051632142170760e11b81526001600160a01b03909116906342842e0e90610afb903090339088906004016120ca565b600060405180830381600087803b158015610b1557600080fd5b505af1158015610b29573d6000803e3d6000fd5b5050505082336001600160a01b03167fbb757047c2b5f3974fe26b7c10f732e7bce710b0952a71082702781e62ae059583604051610b679190612712565b60405180910390a350506107b56118fa565b610b816117f7565b3360009081526011602052604090205460ff1615610bb15760405162461bcd60e51b81526004016104b6906123b3565b336000908152600b60205260409020610bc8611821565b600081600101546009546003548460000154610be4919061288b565b610bee9190612757565b610bf891906128aa565b90508015610c1757600a54610c17906001600160a01b031633836118a4565b6009546003548354610c29919061288b565b610c339190612757565b600183015560405133907f0cb9649b453bd268c42b63cc3e47a59af10a440e3f67242152634a41a30e5e8e90610c6a908490612712565b60405180910390a25050610c7c6118fa565b565b610c86611900565b6005544210610ca75760405162461bcd60e51b81526004016104b6906121b9565b808210610cc65760405162461bcd60e51b81526004016104b6906124fd565b814210610ce55760405162461bcd60e51b81526004016104b6906122ba565b6005829055600481905560068290556040517fa536964ea59c734a26415fc574cf722afc526e94547abf6af36b26d3efcae1f990610d26908490849061271b565b60405180910390a15050565b60116020526000908152604090205460ff1681565b600c546040516331a9108f60e11b8152600091829130916001600160a01b031690636352211e90610d7c908990600401612712565b60206040518083038186803b158015610d9457600080fd5b505afa158015610da8573d6000803e3d6000fd5b505050506040513d601f19601f82011682018060405250810190610dcc9190611df2565b6001600160a01b031614610df25760405162461bcd60e51b81526004016104b690612578565b6000858152600e60205260409020546001600160a01b03163314610e285760405162461bcd60e51b81526004016104b69061249c565b604080516080810182528681526000878152600e602090815290839020546001600160a01b03908116918301919091526001600160801b038088168385015286166060830152600c54925163fc6f786560e01b81529192169063fc6f786590610e959084906004016126bb565b6040805180830381600087803b158015610eae57600080fd5b505af1158015610ec2573d6000803e3d6000fd5b505050506040513d601f19601f82011682018060405250810190610ee69190611f5d565b9097909650945050505050565b60075481565b610f01611900565b610c7c600061196d565b600d5490565b60106020526000908152604090205481565b610f2b611900565b6005544211610f4c5760405162461bcd60e51b81526004016104b690612145565b42600455565b610f608686868686866119bd565b5050600c80546001600160a01b0319166001600160a01b03969096169590951790945550505050565b6000546001600160a01b031690565b60085481565b60035481565b60065481565b600254600160a01b900460ff1681565b610fc26117f7565b610fca611900565b610fd48282611b42565b604051632142170760e11b81526001600160a01b038316906342842e0e90611004903090339086906004016120ca565b600060405180830381600087803b15801561101e57600080fd5b505af1158015611032573d6000803e3d6000fd5b505050507fa87792a513456a87a6d714a52ccfef0f1269fe19d995b0f51f74fe646f6272e282826040516108459291906120ee565b61106f611900565b600254600160a01b900460ff166110985760405162461bcd60e51b81526004016104b690612295565b81156110c95760075481116110bf5760405162461bcd60e51b81526004016104b690612309565b60078190556110e6565b6002805460ff60a01b1916600160a01b8415150217905560006007555b7f241f67ee5f41b7a5cabf911367329be7215900f602ebfc47f89dce2a6bcd847c600754604051610d269190612712565b61111f6117f7565b3360009081526011602052604090205460ff161561114f5760405162461bcd60e51b81526004016104b6906123b3565b600c546040516331a9108f60e11b815233916001600160a01b031690636352211e9061117f908590600401612712565b60206040518083038186803b15801561119757600080fd5b505afa1580156111ab573d6000803e3d6000fd5b505050506040513d601f19601f820116820180604052508101906111cf9190611df2565b6001600160a01b0316146111f55760405162461bcd60e51b81526004016104b69061249c565b6000818152600e60205260409020546001600160a01b031615801561122f57506000818152600f60205260409020546001600160801b0316155b61124b5760405162461bcd60e51b81526004016104b690612655565b6000818152600e602052604080822080546001600160a01b03191633179055600c54905163133f757160e31b81526001600160a01b0391909116906399fbab889061129a908590600401612712565b6101606040518083038186803b1580156112b357600080fd5b505afa1580156112c7573d6000803e3d6000fd5b505050506040513d601f19601f820116820180604052508101906112eb9190611fcc565b5050509750505050505050506000816001600160801b0316116113205760405162461bcd60e51b81526004016104b690612340565b336000908152600b60205260409020600254600160a01b900460ff1615611377576007548154611359906001600160801b03851661273f565b11156113775760405162461bcd60e51b81526004016104b6906123fe565b6000838152600f6020526040902080546001600160801b0319166001600160801b0384161790556113a6611821565b8054156113fe576000816001015460095460035484600001546113c9919061288b565b6113d39190612757565b6113dd91906128aa565b905080156113fc57600a546113fc906001600160a01b031633836118a4565b505b816001600160801b031681600001600082825461141b919061273f565b90915550506009546003548254611432919061288b565b61143c9190612757565b8160010181905550816001600160801b0316600d600082825461145f919061273f565b909155505033600090815260106020526040812080549161147f83612908565b9091555050600c546040516323b872dd60e01b81526001600160a01b03909116906323b872dd906114b8903390309088906004016120ca565b600060405180830381600087803b1580156114d257600080fd5b505af11580156114e6573d6000803e3d6000fd5b5050505082336001600160a01b03167f90890809c654f11d6e72a28fa60149770a0d11ec6c92319d6ceb2bb0a4ea1a1584604051610b6791906126fe565b6002546001600160a01b031681565b60095481565b6115416117f7565b600c546040516331a9108f60e11b815230916001600160a01b031690636352211e90611571908790600401612712565b60206040518083038186803b15801561158957600080fd5b505afa15801561159d573d6000803e3d6000fd5b505050506040513d601f19601f820116820180604052508101906115c19190611df2565b6001600160a01b0316146115e75760405162461bcd60e51b81526004016104b690612578565b6000838152600e60205260409020546001600160a01b0316331461161d5760405162461bcd60e51b81526004016104b69061249c565b600c5460405163edd0d42160e01b81526001600160a01b039091169063edd0d4219061165190869086908690600401612729565b600060405180830381600087803b15801561166b57600080fd5b505af115801561167f573d6000803e3d6000fd5b5050505061168b6118fa565b505050565b60045481565b61169e611900565b6001600160a01b0381166116c45760405162461bcd60e51b81526004016104b690612173565b6107b58161196d565b6001600160a01b0381166000908152600b60205260408120816116ee610f0b565b90506006544211801561170057508015155b1561178957600061171360065442611b90565b9050600060085482611725919061288b565b905060008360095483611738919061288b565b6117429190612757565b60035461174f919061273f565b90508460010154600954828760000154611769919061288b565b6117739190612757565b61177d91906128aa565b955050505050506117b9565b600182015460095460035484546117a0919061288b565b6117aa9190612757565b6117b491906128aa565b925050505b919050565b600a546001600160a01b031681565b600e602052600090815260409020546001600160a01b031681565b600c546001600160a01b031681565b6002600154141561181a5760405162461bcd60e51b81526004016104b6906125f9565b6002600155565b600654421161182f57610c7c565b6000611839610f0b565b90508061184a575042600655610c7c565b600061185860065442611b90565b905060006008548261186a919061288b565b9050826009548261187b919061288b565b6118859190612757565b60036000828254611896919061273f565b909155505042600655505050565b61168b8363a9059cbb60e01b84846040516024016118c39291906120ee565b60408051601f198184030181529190526020810180516001600160e01b03166001600160e01b031990931692909217909152611bd1565b60018055565b611908611c63565b6001600160a01b0316611919610f89565b6001600160a01b031614610c7c5760405162461bcd60e51b81526004016104b690612260565b600a546001600160a01b03828116911614156107b55760405162461bcd60e51b81526004016104b690612435565b600080546001600160a01b038381166001600160a01b0319831681178455604051919092169283917f8be0079c531659141344cd1fd0a4f28419497f9722a3daafe3b4186f6b6457e09190a35050565b600254600160a81b900460ff16156119e75760405162461bcd60e51b81526004016104b69061254b565b6002546001600160a01b03163314611a115760405162461bcd60e51b81526004016104b690612630565b6002805460ff60a81b1916600160a81b179055600a80546001600160a01b0388166001600160a01b03199091161790556008859055600584905560048390558115611a6f576002805460ff60a01b1916600160a01b17905560078290555b600a546040805163313ce56760e01b815290516000926001600160a01b03169163313ce567916004808301926020929190829003018186803b158015611ab457600080fd5b505afa158015611ac8573d6000803e3d6000fd5b505050506040513d601f19601f82011682018060405250810190611aec9190611fab565b60ff169050601e8110611b115760405162461bcd60e51b81526004016104b6906121e3565b611b1c81601e6128aa565b611b2790600a6127bd565b600955600554600655611b3982611696565b50505050505050565b600c546001600160a01b038381169116141580611b7457506000818152600e60205260409020546001600160a01b0316155b6108555760405162461bcd60e51b81526004016104b690612383565b60006004548211611bac57611ba583836128aa565b9050611bcb565b6004548310611bbd57506000611bcb565b82600454611ba591906128aa565b92915050565b6000611c26826040518060400160405280602081526020017f5361666545524332303a206c6f772d6c6576656c2063616c6c206661696c6564815250856001600160a01b0316611c679092919063ffffffff16565b9050805160001480611c47575080806020019051810190611c479190611e39565b61168b5760405162461bcd60e51b81526004016104b6906125af565b3390565b6060611c768484600085611c80565b90505b9392505050565b606082471015611ca25760405162461bcd60e51b81526004016104b69061221a565b600080866001600160a01b03168587604051611cbe919061209a565b60006040518083038185875af1925050503d8060008114611cfb576040519150601f19603f3d011682016040523d82523d6000602084013e611d00565b606091505b5091509150611d1187838387611d1e565b925050505b949350505050565b60608315611d58578251611d5157611d3585611d62565b611d515760405162461bcd60e51b81526004016104b6906124c6565b5081611d16565b611d168383611d71565b6001600160a01b03163b151590565b815115611d815781518083602001fd5b8060405162461bcd60e51b81526004016104b69190612112565b80516117b981612939565b8051600281900b81146117b957600080fd5b80516117b98161295c565b805162ffffff811681146117b957600080fd5b600060208284031215611de7578081fd5b8135611c7981612939565b600060208284031215611e03578081fd5b8151611c7981612939565b60008060408385031215611e20578081fd5b8235611e2b81612939565b946020939093013593505050565b600060208284031215611e4a578081fd5b8151611c798161294e565b60008060408385031215611e67578182fd5b8235611e2b8161294e565b600080600080600080600060e0888a031215611e8c578283fd5b8735611e9781612939565b96506020880135611ea781612939565b955060408801359450606088013593506080880135925060a0880135915060c0880135611ed381612939565b8091505092959891949750929550565b600060208284031215611ef4578081fd5b5035919050565b600080600060608486031215611f0f578283fd5b833592506020840135611f218161295c565b91506040840135611f318161295c565b809150509250925092565b60008060408385031215611f4e578182fd5b50508035926020909101359150565b60008060408385031215611f6f578182fd5b505080516020909101519092909150565b600080600060608486031215611f94578283fd5b505081359360208301359350604090920135919050565b600060208284031215611fbc578081fd5b815160ff81168114611c79578182fd5b60008060008060008060008060008060006101608c8e031215611fed578485fd5b8b516bffffffffffffffffffffffff81168114612008578586fd5b60208d0151909b5061201981612939565b60408d0151909a5061202a81612939565b985061203860608d01611d9b565b975061204660808d01611dc3565b965061205460a08d01611da6565b955061206260c08d01611da6565b945061207060e08d01611db8565b93506101008c015192506101208c015191506101408c015190509295989b509295989b9093969950565b600082516120ac8184602087016128c1565b9190910192915050565b6001600160a01b0391909116815260200190565b6001600160a01b039384168152919092166020820152604081019190915260600190565b6001600160a01b03929092168252602082015260400190565b901515815260200190565b60006020825282518060208401526121318160408501602087016128c1565b601f01601f19169190910160400192915050565b602080825260149082015273141bdbdb081a185cc81b9bdd081cdd185c9d195960621b604082015260600190565b60208082526026908201527f4f776e61626c653a206e6577206f776e657220697320746865207a65726f206160408201526564647265737360d01b606082015260800190565b60208082526010908201526f141bdbdb081a185cc81cdd185c9d195960821b604082015260600190565b6020808252601f908201527f446563696d616c73206d75737420626520696e666572696f7220746f20333000604082015260600190565b60208082526026908201527f416464726573733a20696e73756666696369656e742062616c616e636520666f6040820152651c8818d85b1b60d21b606082015260800190565b6020808252818101527f4f776e61626c653a2063616c6c6572206973206e6f7420746865206f776e6572604082015260600190565b6020808252600b908201526a135d5cdd081899481cd95d60aa1b604082015260600190565b6020808252602f908201527f4e65772073746172742074696d65206d7573742062652068696768657220746860408201526e616e2063757272656e742074696d6560881b606082015260800190565b60208082526018908201527f4e6577206c696d6974206d757374206265206869676865720000000000000000604082015260600190565b60208082526023908201527f43616e6e6f74206465706f7369742061207a65726f2d6c69717569646974792060408201526213919560ea1b606082015260800190565b60208082526016908201527510d85b9b9bdd0818994818481cdd185ad9590813919560521b604082015260600190565b6020808252602b908201527f4d6574686f642064697361626c65642064756520746f20656d657267656e637960408201526a081dda5d1a191c985dd85b60aa1b606082015260800190565b60208082526017908201527f5573657220616d6f756e742061626f7665206c696d6974000000000000000000604082015260600190565b60208082526016908201527521b0b73737ba103132903932bbb0b932103a37b5b2b760511b604082015260600190565b6020808252601b908201527f416d6f756e7420746f20776974686472617720746f6f20686967680000000000604082015260600190565b60208082526010908201526f139bdd081bdddb995c881bd98813919560821b604082015260600190565b6020808252601d908201527f416464726573733a2063616c6c20746f206e6f6e2d636f6e7472616374000000604082015260600190565b6020808252602e908201527f4e65772073746172742074696d65206d757374206265206c6f7765722074686160408201526d6e206e657720656e642074696d6560901b606082015260800190565b602080825260139082015272105b1c9958591e481a5b9a5d1a585b1a5e9959606a1b604082015260600190565b6020808252601e908201527f4e6f74206465706f736974656420746f207468697320636f6e74726163740000604082015260600190565b6020808252602a908201527f5361666545524332303a204552433230206f7065726174696f6e20646964206e6040820152691bdd081cdd58d8d9595960b21b606082015260800190565b6020808252601f908201527f5265656e7472616e637947756172643a207265656e7472616e742063616c6c00604082015260600190565b6020808252600b908201526a4e6f7420666163746f727960a81b604082015260600190565b60208082526015908201527413919508185b1c9958591e4819195c1bdcda5d1959605a1b604082015260600190565b60208082526017908201527f416d6f756e74206d75737420626520706f736974697665000000000000000000604082015260600190565b815181526020808301516001600160a01b0316908201526040808301516001600160801b0390811691830191909152606092830151169181019190915260800190565b6001600160801b0391909116815260200190565b90815260200190565b918252602082015260400190565b9283526020830191909152604082015260600190565b6000821982111561275257612752612923565b500190565b60008261277257634e487b7160e01b81526012600452602481fd5b500490565b80825b600180861161278957506127b4565b81870482111561279b5761279b612923565b808616156127a857918102915b9490941c93800261277a565b94509492505050565b6000611c7960001984846000826127d657506001611c79565b816127e357506000611c79565b81600181146127f9576002811461280357612830565b6001915050611c79565b60ff84111561281457612814612923565b6001841b91508482111561282a5761282a612923565b50611c79565b5060208310610133831016604e8410600b8410161715612863575081810a8381111561285e5761285e612923565b611c79565b6128708484846001612777565b80860482111561288257612882612923565b02949350505050565b60008160001904831182151516156128a5576128a5612923565b500290565b6000828210156128bc576128bc612923565b500390565b60005b838110156128dc5781810151838201526020016128c4565b838111156128eb576000848401525b50505050565b60008161290057612900612923565b506000190190565b600060001982141561291c5761291c612923565b5060010190565b634e487b7160e01b600052601160045260246000fd5b6001600160a01b03811681146107b557600080fd5b80151581146107b557600080fd5b6001600160801b03811681146107b557600080fdfea26469706673582212204445721e7d30e49f5de0462e0dcebbf662df54077132befd70315ab65d42de7864736f6c63430008010033",
  "linkReferences": {},
  "deployedLinkReferences": {}
}